:10000000F6C0000024C1000022C1000020C1000091
:100010001EC100001CC100001AC1000018C1000070
:1000200016C1000014C1000012C1000010C1000080
:100030000EC100000CC100000AC1000008C1000090
:1000400006C1000004C1000002C1000000C10000A0
:10005000FEC00000FCC00000FAC0000070C4000038
:10006000F6C0000036C400000BC40000F0C0000061
:10007000EEC00000ECC00000EAC00000E8C00000D4
:10008000E6C00000E4C00000E2C00000E0C00000E4
:10009000DEC00000DCC00000DAC00000D8C00000F4
:1000A000D6C00000D4C00000D2C00000D0C0000004
:1000B000CEC00000CCC00000CAC00000C8C0000014
:1000C000C6C00000C4C00000C2C00000C0C0000024
:1000D000BEC00000BCC00000BAC00000B8C0000034
:1000E000B6C0000000002100240027002A002D00D7
:1000F0003000330001010000040107010A01000083
:100100002200250028002B002E00310034000201BF
:100110000000050108010B01050505050705080894
:100120000808020202020A0A080804040404010181
:100130000101010101010303030303030303040796
:1001400007070C0C0C0C0C0C0C0C0202020206062D
:100150000606060606060B0B0B0B0B0B0B0B010220
:1001600010202008081020401020408002010201C9
:100170000804020101020408102040808040201081
:1001800008040201800402018040201008040201DA
:100190000804020101020408102040800102040842
:1001A0001020408000000A0B02090C0D0E08070306
:1001B000040100000000000000000000000000003A
:1001C000000000000000000000000000000000002F
:1001D00012111000000000000000000000000000EC
:1001E00000000000000000000000E9047B0811246A
:1001F0001FBECFEFD1E2DEBFCDBF00E00CBF24E0D9
:10020000AAE5B3E001C01D92A531B207E1F713E002
:10021000A0E0B2E0E6E9F8E100E00BBF02C0079021
:100220000D92AA35B107D9F710E0C6EFD0E000E093
:1002300006C021970109802FFE010E94210AC53FB7
:10024000D10780E00807A9F7FED30C943A0CD8CE6A
:100250000895FC01248135816217730720F48081A1
:100260009181009729F410925F038FE593E0089540
:10027000860F971F0895AF92BF92CF92DF92EF92B1
:10028000FF920F931F93CF93DF936C017B018B0140
:10029000040F151FEB015E01AE18BF08C017D10790
:1002A00059F06991D601ED91FC910190F081E02D1A
:1002B000C6011995892B79F7C501DF91CF911F915F
:1002C0000F91FF90EF90DF90CF90BF90AF90089587
:1002D000FC01538D448D252F30E0842F90E0821B4C
:1002E000930B541710F0CF96089501970895FC01D1
:1002F000918D828D981761F0A28DAE0FBF2FB11D29
:100300005D968C91928D9F5F9F73928F90E0089580
:100310008FEF9FEF08952FB7F89480916A03909123
:100320006B03A0916C03B0916D032FBF8093760394
:1003300090937703A0937803B09379038EE693E0CC
:10034000D6DF97FF26C02FB7F89480916A0390916B
:100350006B03A0916C03B0916D032FBF40917603A6
:10036000509177036091780370917903841B950B0A
:10037000A60BB70B40917203509173036091740305
:100380007091750384179507A607B707B8F28FEF2A
:100390009FEF0895FC01918D828D981731F0828D29
:1003A000E80FF11D858D90E008958FEF9FEF089580
:1003B000FC01918D228D892F90E0805C9F4F821BE4
:1003C00091098F73992708958EE693E0F1DF21E07C
:1003D000892B09F420E0822F0895FC01A48DA80F39
:1003E000B92FB11DA35ABF4F2C91848D90E0019677
:1003F0008F739927848FA689B7892C93A089B18997
:100400008C91837080648C93938D848D981306C037
:100410000288F389E02D80818F7D80830895EF929B
:10042000FF920F931F93CF93DF93EC0181E0888FAE
:100430009B8D8C8D98131AC0E889F989808185FF7E
:1004400015C09FB7F894EE89FF896083E889F98920
:1004500080818370806480839FBF81E090E0DF9122
:10046000CF911F910F91FF90EF900895F62E0B8D75
:1004700010E00F5F1F4F0F731127E02E8C8D8E1130
:100480000BC00FB607FCFACFE889F989808185FF98
:10049000F5CFCE01A2DFF2CFEB8DEC0FFD2FF11DDA
:1004A000E35AFF4FF0829FB7F8940B8FEA89FB89DC
:1004B00080818062D0CFCF93DF93EC01888D882339
:1004C000B1F0AA89BB89E889F9898C9185FD03C0BF
:1004D000808186FD0CC00FB607FCF7CF8C9185FF9D
:1004E000F2CF808185FFEDCFCE0177DFEACFDF91BC
:1004F000CF91089580E090E0892B21F065DF811194
:100500000E94000080E090E0892B49F080E090E0BC
:10051000892B29F00E94000081110E94000080E0D8
:1005200090E0892B49F080E090E0892B29F00E942F
:10053000000081110E94000080E090E0892B49F0CA
:1005400080E090E0892B29F00E94000081110C943A
:1005500000000895282F30E0F901EC55FE4F9491EA
:10056000F901E25AFE4F4491285E3E4FF901249171
:10057000222309F434C0992309F191509231F0F407
:10058000E92FF0E08827E953FD4F8F4F5AC7F80253
:10059000FC02D902F002F402DE02FF0205030903A5
:1005A0000F03130317031D032103DE0225032B038F
:1005B0002F03809180008F7780938000E22FF0E0FE
:1005C000EE0FFF1FE250FF4FA591B4918FB7F89443
:1005D000EC91611148C040954E234C938FBF089514
:1005E000809180008F7DE8CF80918000877FE4CF6D
:1005F00084B58F7784BDE2CF84B58F7DFBCF8091AA
:10060000B0008F778093B000D9CF8091B0008F7DFC
:10061000F9CF809190008F7780939000CFCF809119
:1006200090008F7DF9CF80919000877FF5CF8091EA
:10063000A0008F778093A000C1CF8091A0008F7D14
:10064000F9CF8091A000877FF5CF809120018F772F
:1006500080932001B3CF809120018F7DF9CF8091CD
:100660002001877FF5CF4E2BB8CFCF93DF9390E05B
:10067000FC01E25AFE4F2491885E9E4FFC0184915A
:100680008823D1F090E0880F991FFC01EC51FF4FB7
:10069000A591B491FC01E250FF4FC591D491611135
:1006A0000EC09FB7F8948C91E22FE0958E238C9327
:1006B0002881E223E8839FBFDF91CF9108958FB710
:1006C000F894EC91E22BEC938FBFF6CF823091053A
:1006D00038F0880F991F880F991F05970197F1F738
:1006E0000895FC0101900020E9F73197AF01481B04
:1006F000590BBC018EE693E0BECD8F929F92AF92D4
:10070000BF920F931F93CF93DF93CDB7DEB7A1971F
:100710000FB6F894DEBF0FBECDBF19A2423008F469
:100720004AE08E010F5D1F4F842E912CB12CA12C1D
:10073000A501940164D6E62FB901CA01EA30ECF4B0
:10074000E05DD801EE938D01232B242B252B81F71F
:1007500090E080E0109711F0CD01C3DFA1960FB6B5
:10076000F894DEBF0FBECDBFDF91CF911F910F91E7
:10077000BF90AF909F908F900895E95CE2CFCF92A9
:10078000DF92EF92FF92CF93DF936B017C016DE2DA
:100790008EE693E044DEEC0166277727CB016C19E7
:1007A0007D098E099F094AE0A8DF8C0F9D1FDF910C
:1007B000CF91FF90EF90DF90CF900895CF93DF938C
:1007C00090DFEC0184E592E08CDF8C0F9D1FDF91C0
:1007D000CF910895FC0180819181009709F0D5C6E1
:1007E00008950F931F93CF93DF93EC018881998134
:1007F000009759F02A813B812617370730F081E0B6
:10080000DF91CF911F910F9108958B016F5F7F4F03
:1008100045D7009759F0998388831B830A832C81DD
:100820003D81232B61F7FC011082E9CF80E0E8CF06
:10083000EF92FF920F931F93CF93DF93EC017B0115
:100840008A01BA01CEDF28813981811113C02115B7
:10085000310511F0C90199D6198218821D821C82B6
:100860001B821A82CE01DF91CF911F910F91FF90D1
:10087000EF9008951D830C83B701C901F4D7F2CF1F
:100880001F920F920FB60F9211240BB60F922F9357
:100890003F934F935F936F937F938F939F93AF9308
:1008A000BF93EF93FF938EE693E097DDFF91EF9177
:1008B000BF91AF919F918F917F916F915F914F9178
:1008C0003F912F910F900BBE0F900FBE0F901F9076
:1008D00018951F920F920FB60F9211240BB60F921C
:1008E0002F938F939F93EF93FF93E0917E03F0916B
:1008F0007F038081E0918403F091850382FD1DC018
:100900009081809187038F5F8F7320918803821776
:1009100041F0E0918703F0E0E259FC4F958F80931E
:100920008703FF91EF919F918F912F910F900BBEB5
:100930000F900FBE0F901F9018958081F2CF1F92DD
:100940000F920FB60F9211242F933F938F939F9383
:10095000AF93BF9380916A0390916B03A0916C0356
:10096000B0916D0330915E0323E0230F2D3758F5CE
:100970000196A11DB11D20935E0380936A0390939D
:100980006B03A0936C03B0936D0380915A03909115
:100990005B03A0915C03B0915D030196A11DB11DA5
:1009A00080935A0390935B03A0935C03B0935D0321
:1009B000BF91AF919F918F913F912F910F900FBE5B
:1009C0000F901F90189526E8230F0296A11DB11DC8
:1009D000D2CFEEE6F3E01382128288EE93E0A0E03D
:1009E000B0E084839583A683B78386E492E0918305
:1009F000808385EC90E09587848784EC90E09787EE
:100A0000868780EC90E0918B808B81EC90E0938BDB
:100A1000828B82EC90E0958B848B86EC90E0978BB8
:100A2000868B118E128E138E148EEBE0F4E0118201
:100A30001082138212821582148250E040E066E533
:100A400072E0CF01F5CECF93DF93CDB7DEB76397DA
:100A50000FB6F894DEBF0FBECDBF789484B5826028
:100A600084BD84B5816084BD85B5826085BD85B552
:100A7000816085BD80916E00816080936E001092D0
:100A8000810080918100826080938100809181004B
:100A900081608093810080918000816080938000DC
:100AA0008091B10084608093B1008091B00081603A
:100AB0008093B0008091910082608093910080913A
:100AC000910081608093910080919000816080937B
:100AD00090008091A10082608093A1008091A1008C
:100AE00081608093A1008091A00081608093A0002C
:100AF0008091210182608093210180912101816098
:100B00008093210180912001816080932001809158
:100B10007A00846080937A0080917A00826080936A
:100B20007A0080917A00816080937A0080917A00C7
:100B3000806880937A001092C10061E086E395DDC1
:100B400061E087E392DD61E086E28FDD61E08CE3C6
:100B50008CDD61E08DE389DD61E088E386DD61E0C5
:100B60008EE283DD61E080E380DD61E08EE37DDDA8
:100B700061E08AE17ADD61E08CE177DD61E088E1C6
:100B800074DD61E084E271DD61E082E26EDD61E0EE
:100B90008EE16BDD60E083E068DD60E082E065DDD2
:100BA00060E08EE062DD60E08FE05FDD60E082E1CA
:100BB0005CDD60E083E159DDE0917E03F0917F032D
:100BC00082E08083E0917A03F0917B031082E091D0
:100BD0007C03F0917D038FEC808310928603E0917B
:100BE0008203F091830386E08083E0918003F0919B
:100BF0008103808180618083E0918003F091810393
:100C0000808188608083E0918003F09181038081FE
:100C100080688083E0918003F091810380818F7DE3
:100C2000808387E592E0CADD89E792E0C7DD8FEB3C
:100C300092E0C4DD81ED92E0C1DD83EF92E0BEDDA4
:100C40008EE693E0B5DB892B09F462C01A82198223
:100C50001C821B821E821D8250E040E066E572E02D
:100C6000CE010196E5DD57DB97FD19C08F8318860D
:100C70000D811E810F5F1F4FB801CE010196B1DDBE
:100C8000882389F329813A818D819E81BE01695F24
:100C90007F4F820F931FE7D51E830D83E4CF809192
:100CA0000B0490910C040097E1F069817A81611541
:100CB0007105B1F040910D0450910E042D813E81DB
:100CC0004217530768F0CFD58D819E819093100411
:100CD00080930F041E821D82CE0101967BDDB0CF72
:100CE00054D489819A8190930C0480930B048B8156
:100CF0009C8190930E0480930D048D819E8190932E
:100D0000100480930F041A8219821C821B82E2CF86
:100D100080910F0490911004039708F4E6C186E0D7
:100D200093E04CDD18861F821A8619861C861B8666
:100D300060910B0470910C046115710539F04091BC
:100D40000F0450911004CE01079672DD70E060E050
:100D5000CE0107967EDAFC018081873409F0BBC1A1
:100D600061E070E0CE01079674DAFC018081813386
:100D700009F0B1C162E0A62EB12C2B853C85C501DE
:100D800002978217930708F0A6C11A8219821C8263
:100D90001B821E821D826501FFEFCF1ADF0AB6019A
:100DA000CE01079656DAFC0180818B3309F493C19A
:100DB000B501CE0107964DDAFC0180818032E9F65B
:100DC000B601CE01079645DAFC0180818B3309F428
:100DD00082C1B601CE0107963CDAFC017080F1E4D5
:100DE0007F1681F022E47216C1F183E47816C9F10E
:100DF00094E47916D1F1E5E47E1206C024E0822E57
:100E0000912C02C0912C812C8E010F5F1F4FF12C71
:100E1000E12C5601FFEFAF1ABF0AB501CE010796CC
:100E200018DAFC018081803221F1B501CE010796EC
:100E300010DAFC018081082E000C990BC097F80194
:100E4000819391938F01FFEFEF1AFF0A24E0E216DE
:100E5000F10409F4DAC06501DCCF88248394912C75
:100E6000D3CF42E0842E912CCFCF33E0832E912C30
:100E7000CBCFE114F10409F42EC189819A818C0150
:100E8000E1E0EE16F10479F06B817C81F2E0EF167F
:100E9000F10409F0A9C02AE0289F8001299F100DC4
:100EA0001124060F171F7401EE0CFF1CF701E85CFC
:100EB000FD4F20803180201631060CF418C117FD3B
:100EC00016C18B859C85A816B90609F404C18CE06F
:100ED00093E007DC672D8EE693E0A1DA84E193E0EE
:100EE00000DCF701E05AFC4F60817181601B710BDF
:100EF00077FF03C0719561957109072E000C880B6F
:100F0000990B4AE0FADB8EE193E058DC86E293E04D
:100F1000E8DBF401EE0FFF1FEE0FFF1FEC5DFD4F4E
:100F200020E030E048E455E4608171818281938162
:100F30004AD12B013C01B101330C880B990BE4D051
:100F40009B01AC01C301B201F2D12B013C01F701BD
:100F5000E05AFC4F20803180201631060CF058C03A
:100F6000C801821993091C0160E0F701E65EFD4F9C
:100F70008081F0DAB101330C880B990BC5D0A30145
:100F8000920121D12B013C01312C212CF701E05F92
:100F9000FD4FF98BE88BC7018A5F9D4F9B8B8A8B36
:100FA000B101032C000C880B990BAED0A301920168
:100FB000A5D087FF74C0E889F989808161E08D87B9
:100FC000C9DAEA89FB890190F081E02DFF87EE877D
:100FD000CF017CDB60E08D85BDDA8E859F8576DB79
:100FE000FFEF2F1A3F0ADCCF24E6289F8001299FBC
:100FF000100D11242AE0269FC001279F900D112477
:10100000080F191F6D817E814CCF07EE13E04BCF87
:10101000021513050CF043C061E0F701E65EFD4FD9
:10102000808198DAB101601B710B072E000C880BD0
:10103000990B6AD0A3019201C6D02B013C01312C3F
:10104000212CC701805F9D4F998B888BF701EA5F48
:10105000FD4FFB8BEA8BB101032C000C880B990B25
:1010600053D0A30192014AD087FF19C0E889F989BA
:10107000808161E08D876EDAEA89FB890190F081D9
:10108000E02DFF87EE87CF0121DB60E08D8562DAFE
:101090008E859F851BDBFFEF2F1A3F0ADCCFF70100
:1010A000E05AFC4F11830083B801110F880B990B94
:1010B0004AE023DB84E592E014DB87E393E07EDB08
:1010C000B6016E5F7F4FCE010796C3D8FC018081C9
:1010D0008B3309F052CECE0107967CDB50E040E026
:1010E00066E572E08BE094E0A3DB04DAA9CD8BE443
:1010F00093E064DBF0CF8BE094E06CCB40D008F45D
:1011000081E00895E89409C097FB3EF4909580959E
:10111000709561957F4F8F4F9F4F9923A9F0F92FBD
:1011200096E9BB279395F695879577956795B7953B
:10113000F111F8CFFAF4BB0F11F460FF1BC06F5F21
:101140007F4F8F4F9F4F16C0882311F096E911C033
:10115000772321F09EE8872F762F05C0662371F054
:1011600096E8862F70E060E02AF09A95660F771F68
:10117000881FDAF7880F9695879597F90895990F44
:101180000008550FAA0BE0E8FEEF16161706E80751
:10119000F907C0F012161306E407F50798F0621B72
:1011A000730B840B950B39F40A2661F0232B242B47
:1011B000252B21F408950A2609F4A140A6958FEF66
:1011C000811D811D08950BD078C069D028F06ED0A4
:1011D00018F0952309F05AC05FC01124A2C07ED038
:1011E000A0F3959FD1F3950F50E0551F629FF0013A
:1011F000729FBB27F00DB11D639FAA27F00DB11D93
:10120000AA1F649F6627B00DA11D661F829F22271B
:10121000B00DA11D621F739FB00DA11D621F839FA2
:10122000A00D611D221F749F3327A00D611D231F78
:10123000849F600D211D822F762F6A2F11249F57C6
:1012400050408AF0E1F088234AF0EE0FFF1FBB1FE9
:10125000661F771F881F91505040A9F79E3F510588
:1012600070F014C05EC05F3FECF3983EDCF38695EF
:1012700077956795B795F795E7959F5FC1F7FE2B33
:10128000880F911D9695879597F9089597F99F670F
:1012900080E870E060E008959FEF80EC08950024FE
:1012A0000A941616170618060906089500240A94CB
:1012B00012161306140605060895092E0394000C51
:1012C00011F4882352F0BB0F40F4BF2B11F460FFE0
:1012D00004C06F5F7F4F8F4F9F4F089557FD905809
:1012E000440F551F59F05F3F71F04795880F97FBEA
:1012F000991F61F09F3F79F08795089512161306A4
:101300001406551FF2CF4695F1DF08C016161706D2
:101310001806991FF1CF8695710561050894089507
:10132000E894BB2766277727CB0197F908950CD05F
:10133000C4CFBCDF40F0B3DF30F021F45F3F19F0E1
:10134000A5CF5111EECFA8CFC9DF98F39923C9F3E8
:101350005523B1F3951B550BBB27AA2762177307BB
:10136000840738F09F5F5F4F220F331F441FAA1F6F
:10137000A9F333D00E2E3AF0E0E830D0915050402F
:10138000E695001CCAF729D0FE2F27D0660F771FDD
:10139000881FBB1F261737074807AB07B0E809F0BF
:1013A000BB0B802DBF01FF2793585F4F2AF09E3F54
:1013B000510568F06BCFB5CF5F3FECF3983EDCF39F
:1013C000869577956795B795F7959F5FC9F7880FCD
:1013D000911D9695879597F90895E1E0660F771F1F
:1013E000881FBB1F621773078407BA0720F0621BB0
:1013F000730B840BBA0BEE1F88F7E0950895A1E2FA
:101400001A2EAA1BBB1BFD010DC0AA1FBB1FEE1F7E
:10141000FF1FA217B307E407F50720F0A21BB30BC9
:10142000E40BF50B661F771F881F991F1A9469F745
:1014300060957095809590959B01AC01BD01CF01A1
:101440000895EE0FFF1F881F8BBF0790F691E02DC8
:1014500019940F931F93CF93DF938230910510F46B
:1014600082E090E0E0911304F091140430E020E079
:10147000B0E0A0E0309799F42115310509F44AC095
:10148000281B390B24303105D8F58A819B816115E1
:10149000710589F1FB0193838283FE0111C04081B4
:1014A00051810281138148175907E0F04817590705
:1014B00099F4109761F012960C93129713961C935F
:1014C0003296CF01DF91CF911F910F910895009334
:1014D000130410931404F4CF2115310551F0421771
:1014E000530738F0A901DB019A01BD01DF01F801C2
:1014F000C1CFEF01F9CF9093140480931304CDCFA3
:10150000FE01E20FF31F8193919322503109398339
:101510002883D7CF2091110430911204232B41F45A
:10152000209102023091030230931204209311049F
:1015300020910002309101022115310541F42DB7AF
:101540003EB74091040250910502241B350BE091F7
:101550001104F0911204E217F307A0F42E1B3F0BC5
:101560002817390778F0AC014E5F5F4F2417350715
:1015700048F04E0F5F1F5093120440931104819363
:1015800091939FCFF0E0E0E09CCFCF93DF93009763
:10159000E9F0FC01329713821282A0911304B091FA
:1015A0001404ED0130E020E01097A1F42081318196
:1015B000820F931F209111043091120428173907CC
:1015C00009F061C0F0931204E0931104DF91CF9110
:1015D0000895EA01CE17DF07E8F54A815B819E0195
:1015E00041155105B1F7E901FB83EA83499159910E
:1015F000C40FD51FEC17FD0761F48081918102961D
:10160000840F951FE90199838883828193819B834D
:101610008A83F0E0E0E012968D919C9113970097F9
:10162000B9F52D913C911197CD010296820F931F30
:1016300020911104309112042817390739F6309798
:1016400051F51092140410921304B0931204A09355
:101650001104BCCFD383C28340815181840F951F75
:10166000C817D90761F44E5F5F4F88819981480F91
:10167000591F518340838A819B81938382832115E3
:10168000310509F0B0CFF0931404E09313049ECF1A
:10169000FD01DC01C0CF13821282D7CF4F925F923F
:1016A0006F927F928F929F92AF92BF92CF92DF9272
:1016B000EF92FF920F931F93CF93DF938C010097CC
:1016C00091F4CB01DF91CF911F910F91FF90EF909B
:1016D000DF90CF90BF90AF909F908F907F906F9052
:1016E0005F904F90B6CEFC01E60FF71F9C01225091
:1016F0003109E217F30708F4AAC0D901CD91DC91B2
:101700001197C617D70718F1C530D10570F0CE0173
:1017100004978617970748F0C61BD70B2297C193EB
:10172000D1936D937C93CF0130DFC801DF91CF91CE
:101730001F910F91FF90EF90DF90CF90BF90AF90EF
:101740009F908F907F906F905F904F9008955B0176
:10175000AC1ABD0A4C018C0E9D1EA0911304B091D1
:101760001404512C412CF12CE12C109731F580916F
:101770001104909112048815990509F05CC0461671
:10178000570608F058C0809100029091010200971E
:1017900041F48DB79EB74091040250910502841B1D
:1017A000950BE817F90708F052C0F0931204E09384
:1017B0001104F90171836083B8CF8D919C911197C9
:1017C00012966C90129713967C901397A815B905F2
:1017D00059F56C0142E0C40ED11CCA14DB0420F19F
:1017E000AC014A195B09DA011296159780F0628202
:1017F000738251834083D9016D937C93E114F1048A
:1018000071F0D7011396FC93EE9312978ECF229628
:101810008C0F9D1FF90191838083F301EFCFF0932B
:101820001404E093130481CF4816590608F42C01E0
:101830007D01D3019ACFCB010CDE7C01009739F0FA
:10184000AE01B80107D0C801A0DE87016ECF10E05D
:1018500000E06BCFFB01DC0102C001900D92415012
:101860005040D8F70895FB01DC0101900D92002053
:10187000E1F7089510E0C6EFD0E000E005C0802F4A
:10188000FE01DFDD2196011DC73FD10780E008077B
:06189000B1F7F894FFCF50
:1018960000001504800064002C01F401F401F40139
:1018A60036003C002E001A00240037003D003000B0
:1018B6001C0022000000A040CDCC4C400000803F20
:1018C6000000803F00000040B400B400B400B40043
:1018D600C800000000000F023B0168015B02D8014E
:1018E6007701CA010D0A004D6F76696E6720726F27
:1018F600626F7469632061726D206279207073650E
:1019060075646F47436F6465004731202D206D6F06
:1019160076696E6720636F6D6D616E642C20412061
:10192600422043204420452046202D2061786973BB
:10193600206E616D65732C2064656772656520662F
:10194600726F6D2030303020746F20313830004592
:1019560078616D706C65203A204731204130333212
:10196600005E5E5E4D6F76696E6720412061786924
:101976007320627920333220646567726565735E11
:101986005E5E0053746174653A204F7065726174CF
:10199600696F6E616C006D6F76653A004D6F7669A2
:1019A6006E672000206178697320627920002064C8
:1019B6006567726565004178697320706F73697435
:1019C600696F6E203A20005374617465203A204F87
:1019D6007065726174696F6E616C005374617465D1
:0A19E600203A204572726F72000073
:00000001FF
