:10000000F6C0000024C1000022C1000020C1000091
:100010001EC100001CC100001AC1000018C1000070
:1000200016C1000014C1000012C1000010C1000080
:100030000EC100000CC100000AC1000008C1000090
:1000400006C1000004C1000002C1000000C10000A0
:10005000FEC00000FCC00000FAC0000070C4000038
:10006000F6C0000036C400000BC40000F0C0000061
:10007000EEC00000ECC00000EAC00000E8C00000D4
:10008000E6C00000E4C00000E2C00000E0C00000E4
:10009000DEC00000DCC00000DAC00000D8C00000F4
:1000A000D6C00000D4C00000D2C00000D0C0000004
:1000B000CEC00000CCC00000CAC00000C8C0000014
:1000C000C6C00000C4C00000C2C00000C0C0000024
:1000D000BEC00000BCC00000BAC00000B8C0000034
:1000E000B6C0000000002100240027002A002D00D7
:1000F0003000330001010000040107010A01000083
:100100002200250028002B002E00310034000201BF
:100110000000050108010B01050505050705080894
:100120000808020202020A0A080804040404010181
:100130000101010101010303030303030303040796
:1001400007070C0C0C0C0C0C0C0C0202020206062D
:100150000606060606060B0B0B0B0B0B0B0B010220
:1001600010202008081020401020408002010201C9
:100170000804020101020408102040808040201081
:1001800008040201800402018040201008040201DA
:100190000804020101020408102040800102040842
:1001A0001020408000000A0B02090C0D0E08070306
:1001B000040100000000000000000000000000003A
:1001C000000000000000000000000000000000002F
:1001D00012111000000000000000000000000000EC
:1001E00000000000000000000000E9047B0811246A
:1001F0001FBECFEFD1E2DEBFCDBF00E00CBF24E0D9
:10020000AAE5B3E001C01D92A531B207E1F713E002
:10021000A0E0B2E0E6E9F8E100E00BBF02C0079021
:100220000D92AA35B107D9F710E0C6EFD0E000E093
:1002300006C021970109802FFE010E94210AC53FB7
:10024000D10780E00807A9F7FED30C943A0CD8CE6A
:100250000895FC01248135816217730720F48081A1
:100260009181009729F410925F038FE593E0089540
:10027000860F971F0895AF92BF92CF92DF92EF92B1
:10028000FF920F931F93CF93DF936C017B018B0140
:10029000040F151FEB015E01AE18BF08C017D10790
:1002A00059F06991D601ED91FC910190F081E02D1A
:1002B000C6011995892B79F7C501DF91CF911F915F
:1002C0000F91FF90EF90DF90CF90BF90AF90089587
:1002D000FC01538D448D252F30E0842F90E0821B4C
:1002E000930B541710F0CF96089501970895FC01D1
:1002F000918D828D981761F0A28DAE0FBF2FB11D29
:100300005D968C91928D9F5F9F73928F90E0089580
:100310008FEF9FEF08952FB7F89480916A03909123
:100320006B03A0916C03B0916D032FBF8093760394
:1003300090937703A0937803B09379038EE693E0CC
:10034000D6DF97FF26C02FB7F89480916A0390916B
:100350006B03A0916C03B0916D032FBF40917603A6
:10036000509177036091780370917903841B950B0A
:10037000A60BB70B40917203509173036091740305
:100380007091750384179507A607B707B8F28FEF2A
:100390009FEF0895FC01918D828D981731F0828D29
:1003A000E80FF11D858D90E008958FEF9FEF089580
:1003B000FC01918D228D892F90E0805C9F4F821BE4
:1003C00091098F73992708958EE693E0F1DF21E07C
:1003D000892B09F420E0822F0895FC01A48DA80F39
:1003E000B92FB11DA35ABF4F2C91848D90E0019677
:1003F0008F739927848FA689B7892C93A089B18997
:100400008C91837080648C93938D848D981306C037
:100410000288F389E02D80818F7D80830895EF929B
:10042000FF920F931F93CF93DF93EC0181E0888FAE
:100430009B8D8C8D98131AC0E889F989808185FF7E
:1004400015C09FB7F894EE89FF896083E889F98920
:1004500080818370806480839FBF81E090E0DF9122
:10046000CF911F910F91FF90EF900895F62E0B8D75
:1004700010E00F5F1F4F0F731127E02E8C8D8E1130
:100480000BC00FB607FCFACFE889F989808185FF98
:10049000F5CFCE01A2DFF2CFEB8DEC0FFD2FF11DDA
:1004A000E35AFF4FF0829FB7F8940B8FEA89FB89DC
:1004B00080818062D0CFCF93DF93EC01888D882339
:1004C000B1F0AA89BB89E889F9898C9185FD03C0BF
:1004D000808186FD0CC00FB607FCF7CF8C9185FF9D
:1004E000F2CF808185FFEDCFCE0177DFEACFDF91BC
:1004F000CF91089580E090E0892B21F065DF811194
:100500000E94000080E090E0892B49F080E090E0BC
:10051000892B29F00E94000081110E94000080E0D8
:1005200090E0892B49F080E090E0892B29F00E942F
:10053000000081110E94000080E090E0892B49F0CA
:1005400080E090E0892B29F00E94000081110C943A
:1005500000000895282F30E0F901EC55FE4F9491EA
:10056000F901E25AFE4F4491285E3E4FF901249171
:10057000222309F434C0992309F191509231F0F407
:10058000E92FF0E08827E953FD4F8F4F5AC7F80253
:10059000FC02D902F002F402DE02FF0205030903A5
:1005A0000F03130317031D032103DE0225032B038F
:1005B0002F03809180008F7780938000E22FF0E0FE
:1005C000EE0FFF1FE250FF4FA591B4918FB7F89443
:1005D000EC91611148C040954E234C938FBF089514
:1005E000809180008F7DE8CF80918000877FE4CF6D
:1005F00084B58F7784BDE2CF84B58F7DFBCF8091AA
:10060000B0008F778093B000D9CF8091B0008F7DFC
:10061000F9CF809190008F7780939000CFCF809119
:1006200090008F7DF9CF80919000877FF5CF8091EA
:10063000A0008F778093A000C1CF8091A0008F7D14
:10064000F9CF8091A000877FF5CF809120018F772F
:1006500080932001B3CF809120018F7DF9CF8091CD
:100660002001877FF5CF4E2BB8CFCF93DF9390E05B
:10067000FC01E25AFE4F2491885E9E4FFC0184915A
:100680008823D1F090E0880F991FFC01EC51FF4FB7
:10069000A591B491FC01E250FF4FC591D491611135
:1006A0000EC09FB7F8948C91E22FE0958E238C9327
:1006B0002881E223E8839FBFDF91CF9108958FB710
:1006C000F894EC91E22BEC938FBFF6CF823091053A
:1006D00038F0880F991F880F991F05970197F1F738
:1006E0000895FC0101900020E9F73197AF01481B04
:1006F000590BBC018EE693E0BECD8F929F92AF92D4
:10070000BF920F931F93CF93DF93CDB7DEB7A1971F
:100710000FB6F894DEBF0FBECDBF19A2423008F469
:100720004AE08E010F5D1F4F842E912CB12CA12C1D
:10073000A501940164D6E62FB901CA01EA30ECF4B0
:10074000E05DD801EE938D01232B242B252B81F71F
:1007500090E080E0109711F0CD01C3DFA1960FB6B5
:10076000F894DEBF0FBECDBFDF91CF911F910F91E7
:10077000BF90AF909F908F900895E95CE2CFCF92A9
:10078000DF92EF92FF92CF93DF936B017C016DE2DA
:100790008EE693E044DEEC0166277727CB016C19E7
:1007A0007D098E099F094AE0A8DF8C0F9D1FDF910C
:1007B000CF91FF90EF90DF90CF900895CF93DF938C
:1007C00090DFEC0184E592E08CDF8C0F9D1FDF91C0
:1007D000CF910895FC0180819181009709F0D5C6E1
:1007E00008950F931F93CF93DF93EC018881998134
:1007F000009759F02A813B812617370730F081E0B6
:10080000DF91CF911F910F9108958B016F5F7F4F03
:1008100045D7009759F0998388831B830A832C81DD
:100820003D81232B61F7FC011082E9CF80E0E8CF06
:10083000EF92FF920F931F93CF93DF93EC017B0115
:100840008A01BA01CEDF28813981811113C02115B7
:10085000310511F0C90199D6198218821D821C82B6
:100860001B821A82CE01DF91CF911F910F91FF90D1
:10087000EF9008951D830C83B701C901F4D7F2CF1F
:100880001F920F920FB60F9211240BB60F922F9357
:100890003F934F935F936F937F938F939F93AF9308
:1008A000BF93EF93FF938EE693E097DDFF91EF9177
:1008B000BF91AF919F918F917F916F915F914F9178
:1008C0003F912F910F900BBE0F900FBE0F901F9076
:1008D00018951F920F920FB60F9211240BB60F921C
:1008E0002F938F939F93EF93FF93E0917E03F0916B
:1008F0007F038081E0918403F091850382FD1DC018
:100900009081809187038F5F8F7320918803821776
:1009100041F0E0918703F0E0E259FC4F958F80931E
:100920008703FF91EF919F918F912F910F900BBEB5
:100930000F900FBE0F901F9018958081F2CF1F92DD
:100940000F920FB60F9211242F933F938F939F9383
:10095000AF93BF9380916A0390916B03A0916C0356
:10096000B0916D0330915E0323E0230F2D3758F5CE
:100970000196A11DB11D20935E0380936A0390939D
:100980006B03A0936C03B0936D0380915A03909115
:100990005B03A0915C03B0915D030196A11DB11DA5
:1009A00080935A0390935B03A0935C03B0935D0321
:1009B000BF91AF919F918F913F912F910F900FBE5B
:1009C0000F901F90189526E8230F0296A11DB11DC8
:1009D000D2CFEEE6F3E01382128288EE93E0A0E03D
:1009E000B0E084839583A683B78386E492E0918305
:1009F000808385EC90E09587848784EC90E09787EE
:100A0000868780EC90E0918B808B81EC90E0938BDB
:100A1000828B82EC90E0958B848B86EC90E0978BB8
:100A2000868B118E128E138E148EEBE0F4E0118201
:100A30001082138212821582148250E040E066E533
:100A400072E0CF01F5CECF93DF93CDB7DEB76397DA
:100A50000FB6F894DEBF0FBECDBF789484B5826028
:100A600084BD84B5816084BD85B5826085BD85B552
:100A7000816085BD80916E00816080936E001092D0
:100A8000810080918100826080938100809181004B
:100A900081608093810080918000816080938000DC
:100AA0008091B10084608093B1008091B00081603A
:100AB0008093B0008091910082608093910080913A
:100AC000910081608093910080919000816080937B
:100AD00090008091A10082608093A1008091A1008C
:100AE00081608093A1008091A00081608093A0002C
:100AF0008091210182608093210180912101816098
:100B00008093210180912001816080932001809158
:100B10007A00846080937A0080917A00826080936A
:100B20007A0080917A00816080937A0080917A00C7
:100B3000806880937A001092C10061E086E395DDC1
:100B400061E087E392DD61E086E28FDD61E08CE3C6
:100B50008CDD61E08DE389DD61E088E386DD61E0C5
:100B60008EE283DD61E080E380DD61E08EE37DDDA8
:100B700061E08AE17ADD61E08CE177DD61E088E1C6
:100B800074DD61E084E271DD61E082E26EDD61E0EE
:100B90008EE16BDD60E083E068DD60E082E065DDD2
:100BA00060E08EE062DD60E08FE05FDD60E082E1CA
:100BB0005CDD60E083E159DDE0917E03F0917F032D
:100BC00082E08083E0917A03F0917B031082E091D0
:100BD0007C03F0917D038FEC808310928603E0917B
:100BE0008203F091830386E08083E0918003F0919B
:100BF0008103808180618083E0918003F091810393
:100C0000808188608083E0918003F09181038081FE
:100C100080688083E0918003F091810380818F7DE3
:100C2000808387E592E0CADD89E792E0C7DD8FEB3C
:100C300092E0C4DD81ED92E0C1DD83EF92E0BEDDA4
:100C40008EE693E0B5DB892B09F462C01A82198223
:100C50001C821B821E821D8250E040E066E572E02D
:100C6000CE010196E5DD57DB97FD19C08F8318860D
:100C70000D811E810F5F1F4FB801CE010196B1DDBE
:100C8000882389F329813A818D819E81BE01695F24
:100C90007F4F820F931FE7D51E830D83E4CF809192
:100CA0000B0490910C040097E1F069817A81611541
:100CB0007105B1F040910D0450910E042D813E81DB
:100CC0004217530768F0CFD58D819E819093100411
:100CD00080930F041E821D82CE0101967BDDB0CF72
:100CE00054D489819A8190930C0480930B048B8156
:100CF0009C8190930E0480930D048D819E8190932E
:100D0000100480930F041A8219821C821B82E2CF86
:100D100080910F0490911004039708F4E6C186E0D7
:100D200093E04CDD18861F821A8619861C861B8666
:100D300060910B0470910C046115710539F04091BC
:100D40000F0450911004CE01079672DD70E060E050
:100D5000CE0107967EDAFC018081873409F0BBC1A1
:100D600061E070E0CE01079674DAFC018081813386
:100D700009F0B1C162E0A62EB12C2B853C85C501DE
:100D800002978217930708F0A6C11A8219821C8263
:100D90001B821E821D826501FFEFCF1ADF0AB6019A
:100DA000CE01079656DAFC0180818B3309F493C19A
:100DB000B501CE0107964DDAFC0180818032E9F65B
:100DC000B601CE01079645DAFC0180818B3309F428
:100DD00082C1B601CE0107963CDAFC017080F1E4D5
:100DE0007F1681F022E47216C1F183E47816C9F10E
:100DF00094E47916D1F1E5E47E1206C024E0822E57
:100E0000912C02C0912C812C8E010F5F1F4FF12C71
:100E1000E12C5601FFEFAF1ABF0AB501CE010796CC
:100E200018DAFC018081803221F1B501CE010796EC
:100E300010DAFC018081082E000C990BC097F80194
:100E4000819391938F01FFEFEF1AFF0A24E0E216DE
:100E5000F10409F4DAC06501DCCF88248394912C75
:100E6000D3CF42E0842E912CCFCF33E0832E912C30
:100E7000CBCFE114F10409F42EC189819A818C0150
:100E8000E1E0EE16F10479F06B817C81F2E0EF167F
:100E9000F10409F0A9C02AE0289F8001299F100DC4
:100EA0001124060F171F7401EE0CFF1CF701E85CFC
:100EB000FD4F20803180201631060CF418C117FD3B
:100EC00016C18B859C85A816B90609F404C18CE06F
:100ED00093E007DC672D8EE693E0A1DA84E193E0EE
:100EE00000DCF701E05AFC4F60817181601B710BDF
:100EF00077FF03C0719561957109072E000C880B6F
:100F0000990B4AE0FADB8EE193E058DC86E293E04D
:100F1000E8DBF401EE0FFF1FEE0FFF1FEC5DFD4F4E
:100F200020E030E048E455E4608171818281938162
:100F30004AD12B013C01B101330C880B990BE4D051
:100F40009B01AC01C301B201F2D12B013C01F701BD
:100F5000E05AFC4F20803180201631060CF058C03A
:100F6000C801821993091C0160E0F701E65EFD4F9C
:100F70008081F0DAB101330C880B990BC5D0A30145
:100F8000920121D12B013C01312C212CF701E05F92
:100F9000FD4FF98BE88BC7018A5F9D4F9B8B8A8B36
:100FA000B101032C000C880B990BAED0A301920168
:100FB000A5D087FF74C0E889F989808161E08D87B9
:100FC000C9DAEA89FB890190F081E02DFF87EE877D
:100FD000CF017CDB60E08D85BDDA8E859F8576DB79
:100FE000FFEF2F1A3F0ADCCF24E6289F8001299FBC
:100FF000100D11242AE0269FC001279F900D112477
:10100000080F191F6D817E814CCF07EE13E04BCF87
:10101000021513050CF043C061E0F701E65EFD4FD9
:10102000808198DAB101601B710B072E000C880BD0
:10103000990B6AD0A3019201C6D02B013C01312C3F
:10104000212CC701805F9D4F998B888BF701EA5F48
:10105000FD4FFB8BEA8BB101032C000C880B990B25
:1010600053D0A30192014AD087FF19C0E889F989BA
:10107000808161E08D876EDAEA89FB890190F081D9
:10108000E02DFF87EE87CF0121DB60E08D8562DAFE
:101090008E859F851BDBFFEF2F1A3F0ADCCFF70100
:1010A000E05AFC4F11830083B801110F880B990B94
:1010B0004AE023DB84E592E014DB87E393E07EDB08
:1010C000B6016E5F7F4FCE010796C3D8FC018081C9
:1010D0008B3309F052CECE0107967CDB50E040E026
:1010E00066E572E08BE094E0A3DB04DAA9CD8BE443
:1010F00093E064DBF0CF8BE094E06CCB40D008F45D
:1011000081E00895E89409C097FB3EF4909580959E
:10111000709561957F4F8F4F9F4F9923A9F0F92FBD
:1011200096E9BB279395F695879577956795B7953B
:10113000F111F8CFFAF4BB0F11F460FF1BC06F5F21
:101140007F4F8F4F9F4F16C0882311F096E911C033
:10115000772321F09EE8872F762F05C0662371F054
:1011600096E8862F70E060E02AF09A95660F771F68
:10117000881FDAF7880F9695879597F90895990F44
:101180000008550FAA0BE0E8FEEF16161706E80751
:10119000F907C0F012161306E407F50798F0621B72
:1011A000730B840B950B39F40A2661F0232B242B47
:1011B000252B21F408950A2609F4A140A6958FEF66
:1011C000811D811D08950BD078C069D028F06ED0A4
:1011D00018F0952309F05AC05FC01124A2C07ED038
:1011E000A0F3959FD1F3950F50E0551F629FF0013A
:1011F000729FBB27F00DB11D639FAA27F00DB11D93
:10120000AA1F649F6627B00DA11D661F829F22271B
:10121000B00DA11D621F739FB00DA11D621F839FA2
:10122000A00D611D221F749F3327A00D611D231F78
:10123000849F600D211D822F762F6A2F11249F57C6
:1012400050408AF0E1F088234AF0EE0FFF1FBB1FE9
:10125000661F771F881F91505040A9F79E3F510588
:1012600070F014C05EC05F3FECF3983EDCF38695EF
:1012700077956795B795F795E7959F5FC1F7FE2B33
:10128000880F911D9695879597F9089597F99F670F
:1012900080E870E060E008959FEF80EC08950024FE
:1012A0000A941616170618060906089500240A94CB
:1012B00012161306140605060895092E0394000C51
:1012C00011F4882352F0BB0F40F4BF2B11F460FFE0
:1012D00004C06F5F7F4F8F4F9F4F089557FD905809
:1012E000440F551F59F05F3F71F04795880F97FBEA
:1012F000991F61F09F3F79F08795089512161306A4
:101300001406551FF2CF4695F1DF08C016161706D2
:101310001806991FF1CF8695710561050894089507
:10132000E894BB2766277727CB0197F908950CD05F
:10133000C4CFBCDF40F0B3DF30F021F45F3F19F0E1
:10134000A5CF5111EECFA8CFC9DF98F39923C9F3E8
:101350005523B1F3951B550BBB27AA2762177307BB
:10136000840738F09F5F5F4F220F331F441FAA1F6F
:10137000A9F333D00E2E3AF0E0E830D0915050402F
:10138000E695001CCAF729D0FE2F27D0660F771FDD
:10139000881FBB1F261737074807AB07B0E809F0BF
:1013A000BB0B802DBF01FF2793585F4F2AF09E3F54
:1013B000510568F06BCFB5CF5F3FECF3983EDCF39F
:1013C000869577956795B795F7959F5FC9F7880FCD
:1013D000911D9695879597F90895E1E0660F771F1F
:1013E000881FBB1F621773078407BA0720F0621BB0
:1013F000730B840BBA0BEE1F88F7E0950895A1E2FA
:101400001A2EAA1BBB1BFD010DC0AA1FBB1FEE1F7E
:10141000FF1FA217B307E407F50720F0A21BB30BC9
:10142000E40BF50B661F771F881F991F1A9469F745
:1014300060957095809590959B01AC01BD01CF01A1
:101440000895EE0FFF1F881F8BBF0790F691E02DC8
:1014500019940F931F93CF93DF938230910510F46B
:1014600082E090E0E0911304F091140430E020E079
:10147000B0E0A0E0309799F42115310509F44AC095
:10148000281B390B24303105D8F58A819B816115E1
:10149000710589F1FB0193838283FE0111C04081B4
:1014A00051810281138148175907E0F04817590705
:1014B00099F4109761F012960C93129713961C935F
:1014C0003296CF01DF91CF911F910F910895009334
:1014D000130410931404F4CF2115310551F0421771
:1014E000530738F0A901DB019A01BD01DF01F801C2
:1014F000C1CFEF01F9CF9093140480931304CDCFA3
:10150000FE01E20FF31F8193919322503109398339
:101510002883D7CF2091110430911204232B41F45A
:10152000209102023091030230931204209311049F
:1015300020910002309101022115310541F42DB7AF
:101540003EB74091040250910502241B350BE091F7
:101550001104F0911204E217F307A0F42E1B3F0BC5
:101560002817390778F0AC014E5F5F4F2417350715
:1015700048F04E0F5F1F5093120440931104819363
:1015800091939FCFF0E0E0E09CCFCF93DF93009763
:10159000E9F0FC01329713821282A0911304B091FA
:1015A0001404ED0130E020E01097A1F42081318196
:1015B000820F931F209111043091120428173907CC
:1015C00009F061C0F0931204E0931104DF91CF9110
:1015D0000895EA01CE17DF07E8F54A815B819E0195
:1015E00041155105B1F7E901FB83EA83499159910E
:1015F000C40FD51FEC17FD0761F48081918102961D
:10160000840F951FE90199838883828193819B834D
:101610008A83F0E0E0E012968D919C9113970097F9
:10162000B9F52D913C911197CD010296820F931F30
:1016300020911104309112042817390739F6309798
:1016400051F51092140410921304B0931204A09355
:101650001104BCCFD383C28340815181840F951F75
:10166000C817D90761F44E5F5F4F88819981480F91
:10167000591F518340838A819B81938382832115E3
:10168000310509F0B0CFF0931404E09313049ECF1A
:10169000FD01DC01C0CF13821282D7CF4F925F923F
:1016A0006F927F928F929F92AF92BF92CF92DF9272
:1016B000EF92FF920F931F93CF93DF938C010097CC
:1016C00091F4CB01DF91CF911F910F91FF90EF909B
:1016D000DF90CF90BF90AF909F908F907F906F9052
:1016E0005F904F90B6CEFC01E60FF71F9C01225091
:1016F0003109E217F30708F4AAC0D901CD91DC91B2
:101700001197C617D70718F1C530D10570F0CE0173
:1017100004978617970748F0C61BD70B2297C193EB
:10172000D1936D937C93CF0130DFC801DF91CF91CE
:101730001F910F91FF90EF90DF90CF90BF90AF90EF
:101740009F908F907F906F905F904F9008955B0176
:10175000AC1ABD0A4C018C0E9D1EA0911304B091D1
:101760001404512C412CF12CE12C109731F580916F
:101770001104909112048815990509F05CC0461671
:10178000570608F058C0809100029091010200971E
:1017900041F48DB79EB74091040250910502841B1D
:1017A000950BE817F90708F052C0F0931204E09384
:1017B0001104F90171836083B8CF8D919C911197C9
:1017C00012966C90129713967C901397A815B905F2
:1017D00059F56C0142E0C40ED11CCA14DB0420F19F
:1017E000AC014A195B09DA011296159780F0628202
:1017F000738251834083D9016D937C93E114F1048A
:1018000071F0D7011396FC93EE9312978ECF229628
:101810008C0F9D1FF90191838083F301EFCFF0932B
:101820001404E093130481CF4816590608F42C01E0
:101830007D01D3019ACFCB010CDE7C01009739F0FA
:10184000AE01B80107D0C801A0DE87016ECF10E05D
:1018500000E06BCFFB01DC0102C001900D92415012
:101860005040D8F70895FB01DC0101900D92002053
:10187000E1F7089510E0C6EFD0E000E005C0802F4A
:10188000FE01DFDD2196011DC73FD10780E008077B
:06189000B1F7F894FFCF50
:1018960000001504800064002C01F401F401F40139
:1018A60036003C002E001A00240037003D003000B0
:1018B6001C0022000000A040CDCC4C400000803F20
:1018C6000000803F00000040B400B400B400B40043
:1018D600C800000000000F023B0168015B02D8014E
:1018E6007701CA010D0A004D6F76696E6720726F27
:1018F600626F7469632061726D206279207073650E
:1019060075646F47436F6465004731202D206D6F06
:1019160076696E6720636F6D6D616E642C20412061
:10192600422043204420452046202D2061786973BB
:10193600206E616D65732C2064656772656520662F
:10194600726F6D2030303020746F20313830004592
:1019560078616D706C65203A204731204130333212
:10196600005E5E5E4D6F76696E6720412061786924
:101976007320627920333220646567726565735E11
:101986005E5E0053746174653A204F7065726174CF
:10199600696F6E616C006D6F76653A004D6F7669A2
:1019A6006E672000206178697320627920002064C8
:1019B6006567726565004178697320706F73697435
:1019C600696F6E203A20005374617465203A204F87
:1019D6007065726174696F6E616C005374617465D1
:0A19E600203A204572726F72000073
:020000023000CC
:10E000000D9489F10D94B2F10D94B2F10D94B2F129
:10E010000D94B2F10D94B2F10D94B2F10D94B2F1F0
:10E020000D94B2F10D94B2F10D94B2F10D94B2F1E0
:10E030000D94B2F10D94B2F10D94B2F10D94B2F1D0
:10E040000D94B2F10D94B2F10D94B2F10D94B2F1C0
:10E050000D94B2F10D94B2F10D94B2F10D94B2F1B0
:10E060000D94B2F10D94B2F10D94B2F10D94B2F1A0
:10E070000D94B2F10D94B2F10D94B2F10D94B2F190
:10E080000D94B2F10D94B2F10D94B2F10D94B2F180
:10E090000D94B2F10D94B2F10D94B2F10D94B2F170
:10E0A0000D94B2F10D94B2F10D94B2F10D94B2F160
:10E0B0000D94B2F10D94B2F10D94B2F10D94B2F150
:10E0C0000D94B2F10D94B2F10D94B2F10D94B2F140
:10E0D0000D94B2F10D94B2F10D94B2F10D94B2F130
:10E0E0000D94B2F141546D656761323536300041AF
:10E0F000726475696E6F206578706C6F72657220DE
:10E1000073746B3530305632206279204D4C530099
:10E11000426F6F746C6F616465723E004875683F52
:10E1200000436F6D70696C6564206F6E203D200048
:10E130004350552054797065202020203D20005FF9
:10E140005F4156525F415243485F5F3D2000415658
:10E1500052204C696243205665723D20004743437C
:10E160002056657273696F6E203D20004350552024
:10E1700049442020202020203D20004C6F7720663D
:10E18000757365202020203D20004869676820665F
:10E190007573652020203D200045787420667573D6
:10E1A00065202020203D20004C6F636B2066757336
:10E1B000652020203D20004D617220203720323024
:10E1C000313300312E362E3800342E332E350056A2
:10E1D00023202020414444522020206F7020636F70
:10E1E00064652020202020696E73747275637469E1
:10E1F0006F6E2061646472202020496E74657272B3
:10E20000757074006E6F20766563746F7200726A49
:10E210006D702020006A6D70200057686174207056
:10E220006F72743A00506F7274206E6F7420737541
:10E2300070706F72746564004D7573742062652030
:10E2400061206C6574746572002000577269747483
:10E25000696E672045450052656164696E672045B7
:10E26000450045452065727220636E743D00504F35
:10E27000525400303D5A65726F2061646472003FF1
:10E280003D43505520737461747300403D454550C3
:10E29000524F4D207465737400423D426C696E6B41
:10E2A000204C454400453D44756D70204545505215
:10E2B0004F4D00463D44756D7020464C415348001B
:10E2C000483D48656C70004C3D4C69737420492F83
:10E2D0004F20506F72747300513D51756974005234
:10E2E0003D44756D702052414D00563D73686F7707
:10E2F00020696E7465727275707420566563746FF0
:10E30000727300593D506F727420626C696E6B00BD
:10E310002A0011241FBECFEFD1E2DEBFCDBF01E046
:10E320000CBF12E0A0E0B2E0EEE1FDEF03E00BBFB6
:10E3300002C007900D92A030B107D9F712E0A0E01B
:10E34000B2E001C01D92AE30B107E1F70F9460F367
:10E350000D948DFE01E20EBF0FEF0DBF11241FBE05
:10E360000D9460F30D9400F020E030E040ED57E0B4
:10E3700005C0FA013197F1F72F5F3F4F2817390792
:10E38000C0F308959C01260F311DC901A0E0B0E043
:10E390002F5F3F4FABBFFC018791882361F08093D3
:10E3A000C6008091C00086FFFCCF8091C0008064D1
:10E3B0008093C000EACF08958DE08093C6008091DD
:10E3C000C00086FFFCCF8091C00080648093C000B5
:10E3D0008AE08093C6008091C00086FFFCCF8091C8
:10E3E000C00080648093C00008950F94C2F10F9420
:10E3F000DCF10895FC019081992359F09093C600B7
:10E400008091C00086FFFCCF8091C0008064809323
:10E41000C0003196992379F70895282F982F929567
:10E420009F70892F805D8A3308F0895F8093C600D2
:10E430008091C00086FFFCCF8091C00080648093F3
:10E44000C000822F8F70982F905D9A3308F0995FEB
:10E450009093C6008091C00086FFFCCF8091C000E1
:10E4600080648093C00008959C01FB01853691056E
:10E470001CF46330710594F0C90164E670E00F94F8
:10E480002EFE605D7F4F6093C6008091C00086FFC6
:10E49000FCCF8091C00080648093C0002B30310598
:10E4A00014F43297B4F0C90164E670E00F942EFEC4
:10E4B0006AE070E00F942EFE605D7F4F6093C600AF
:10E4C0008091C00086FFFCCF8091C0008064809363
:10E4D000C000C9016AE070E00F942EFEC0968093E0
:10E4E000C6008091C00086FFFCCF8091C000806490
:10E4F0008093C00008951F93182F8EE692EE60E07F
:10E500000F94C2F11093C6008091C00086FFFCCF2B
:10E510008091C00080648093C0000F94DCF11F9153
:10E5200008952F923F924F925F926F927F928F92B7
:10E530009F92AF92BF92CF92DF92EF92FF920F9392
:10E540001F93DF93CF93CDB7DEB762970FB6F894E2
:10E55000DEBF0FBECDBF382E622ECA01DB015C01CB
:10E560006D01772420E2222E2E010894411C511CBB
:10E570008BC081E0A81680E0B80681E0C80680E084
:10E58000D80628F0C601AA27BB270F940DF2BB2797
:10E59000AD2D9C2D8B2D0F940DF28A2D0F940DF225
:10E5A0002092C6008091C00086FFFCCF8091C00001
:10E5B00080648093C0009DE29093C6008091C0006B
:10E5C00086FFFCCF8091C00080648093C0002092C1
:10E5D000C6008091C00086FFFCCF8091C00080649F
:10E5E0008093C00019828601750188249924A1E0D6
:10E5F0003A1651F03A1620F0B2E03B1661F409C029
:10E600000BBFF701779007C0C7010F9477FE782EF4
:10E6100002C0F7017080872D0F940DF22092C60082
:10E620008091C00086FFFCCF8091C0008064809301
:10E63000C000872D8052F401EF70F0708F3520F408
:10E64000E40DF51D708204C0E40DF51D8EE280839B
:10E650000894E11CF11C011D111D0894811C911CE2
:10E6600090E18916910409F0C2CF80E190E0A0E02A
:10E67000B0E0A80EB91ECA1EDB1E198AC2010F9493
:10E68000FAF10F94DCF16A94662009F072CF629679
:10E690000FB6F894DEBF0FBECDBFCF91DF911F91B3
:10E6A0000F91FF90EF90DF90CF90BF90AF909F9031
:10E6B0008F907F906F905F904F903F902F90089534
:10E6C0002F923F924F925F926F927F928F929F9282
:10E6D000AF92BF92CF92DF92EF92FF920F931F9370
:10E6E000DF93CF93CDB7DEB7CD53D1400FB6F894BB
:10E6F000DEBF0FBECDBF01E20EBF0FEF0DBF94B75F
:10E70000F894A89514BE80916000886180936000A1
:10E7100010926000789493FF05C0E0910002F091A0
:10E7200001021995279A2F9A8091C00082608093E8
:10E73000C00080E18093C40088E18093C1000000A4
:10E74000EE24FF24870144E0A42EB12CCC24DD2448
:10E7500024C0C5010197F1F70894E11CF11C011DCB
:10E76000111D21E2E2162EE4F20620E0020720E06D
:10E77000120718F031E0C32ED12CC801B70127ECE5
:10E780003BE140E050E00F9441FE611571058105C9
:10E79000910519F485B1805885B98091C00087FD35
:10E7A00003C0C114D104A9F2A6014F5F5F4FC25E3E
:10E7B000DE4F59834883CE51D140C25EDE4F8881FF
:10E7C0009981CE51D140019711F00D9410FEC05D9A
:10E7D000DE4F19821882C053D14060E0C15DDE4F28
:10E7E0001882CF52D14088249924C35DDE4F19820C
:10E7F0001882CD52D140C05EDE4F188219821A8233
:10E800001B82C052D140CE5CDE4F188219821A8220
:10E810001B82C253D140EE24FF2487010BBFF701B6
:10E8200007911691C45CDE4F19830883CC53D14005
:10E830000D940BFEC25EDE4F28813981CE51D1404E
:10E840002130310509F52091C600C25EDE4F1982E4
:10E850001882CE51D14022C02F5F3F4F4F4F5F4FA4
:10E86000213082E138078AE7480780E0580780F0C6
:10E87000C45CDE4FE881F981CC53D140EF5FFF4F9C
:10E8800019F0EE27FF27099420E030E040E050E047
:10E890008091C00087FFE0CF2091C600C35DDE4FAE
:10E8A00048815981CD52D1404F5F5F4FC35DDE4FEC
:10E8B00059834883CD52D140213209F063C64A3092
:10E8C000510508F05FC60894811C911C53E0851621
:10E8D000910409F059C600E010E018C081E280936D
:10E8E000C6008091C00086FFFCCF8091C00080648C
:10E8F0008093C0002F5F3F4F2931310579F70F9486
:10E90000DCF10F5F1F4F0530110519F020E030E0FA
:10E91000E5CF10920A0210920B0210920C02109294
:10E920000D02109206021092070210920802109235
:10E930000902109202021092030210920402109235
:10E9400005028FEE90EE60E00F94F5F180E191EE1C
:10E9500060E00F94C2F18091C00087FFFCCF9091DE
:10E96000C600903608F09F759032B8F09093C600BC
:10E970008091C00086FFFCCF8091C00080648093AE
:10E98000C000A0E2A093C6008091C00086FFFCCF2B
:10E990008091C00080648093C000983409F4D7C18E
:10E9A0009934B8F4923409F459C1933458F490333B
:10E9B00019F1903308F4E3C59F33A1F1903409F0C5
:10E9C000DEC5BDC0953409F470C1963409F0D7C5D1
:10E9D00098C1923509F42BC2933538F49C3409F46C
:10E9E000F5C1913509F0CBC518C2963509F445C279
:10E9F000993509F0C4C567C483E792EE62E00F94CD
:10EA0000F5F110920602109207021092080210927D
:10EA1000090210920A0210920B0210920C0210923C
:10EA20000D0213C18FE792EE62E00F94F5F18FEEC5
:10EA300090EE60E00F94F5F181E291EE60E00F94CA
:10EA4000C2F187EB91EE60E00F94F5F180E391EE77
:10EA500060E00F94C2F184EE90EE60E00F94F5F167
:10EA60008FE391EE60E00F94C2F186E090E061E008
:10EA700070E00F9434F20F94DCF18DE591EE60E0DC
:10EA80000F94C2F189EC91EE60E00F94F5F18EE401
:10EA900091EE60E00F94C2F183EC91EE60E00F9490
:10EAA000F5F18CE691EE60E00F94C2F18EE10F94E7
:10EAB0000DF288E90F940DF281E00F940DF20F949E
:10EAC000DCF18BE791EE60E00F94C2F119E0E0E039
:10EAD000F0E010935700E4918E2F0F940DF20F94F5
:10EAE000DCF18AE891EE60E00F94C2F1E3E0F0E03F
:10EAF00010935700E4918E2F0F940DF20F94DCF1D8
:10EB000089E991EE60E00F94C2F1E2E0F0E0109349
:10EB10005700E4918E2F0F940DF20F94DCF188EAE8
:10EB200091EE60E00F94C2F1E1E0F0E01093570045
:10EB30001491812F0F940DF20F94DCF107CF8BE825
:10EB400092EE62E00F94F5F18BE492EE60E00F94A8
:10EB5000F5F10F94DCF100E010E019C0C8016F2D51
:10EB60000F947FFEFF2031F489E492EE60E00F9471
:10EB7000C2F10BC0F092C6008091C00086FFFCCFAE
:10EB80008091C00080648093C0000F5F1F4FC80158
:10EB900081519F41A0E0B0E0ABBFFC01F790BAE229
:10EBA000FB1621F0E2E000301E07C1F60F94DCF105
:10EBB0000F94DCF187E592EE60E00F94F5F10F948D
:10EBC000DCF1CC24DD2400E010E01EC0C8010F946D
:10EBD00077FEF82E882331F489E492EE60E00F94FA
:10EBE000C2F10BC08093C6008091C00086FFFCCFAD
:10EBF0008091C00080648093C000FE1419F00894D6
:10EC0000C11CD11C0F5F1F4FC80181519F41A0E063
:10EC1000B0E0ABBFFC01E790FAE2EF1621F022E092
:10EC20000030120799F60F94DCF10F94DCF182E6C4
:10EC300092EE60E00F94C2F1C60161E070E00F94C3
:10EC400034F20F94DCF10F94DCF110920202109276
:10EC50000302109204021092050278CE89E992EE26
:10EC600062E00F94F5F1279A2F9A16C02F9880E052
:10EC700090E0E0EDF7E03197F1F7019684369105E9
:10EC8000C1F72F9A80E090E0E0EDF7E03197F1F7DF
:10EC9000019684369105C1F78091C00087FFE6CFC9
:10ECA0008091C00087FFFCCF64C485EA92EE62E0E9
:10ECB0000F94F5F140910202509103026091040219
:10ECC0007091050281E020E10F9491F2809102029F
:10ECD00090910302A0910402B091050280509F4FD1
:10ECE000AF4FBF4F8093020290930302A0930402A0
:10ECF000B093050280509041A040B04008F426CE69
:10ED0000A4CF83EB92EE62E00F94F5F140910602FE
:10ED100050910702609108027091090280E020E1A1
:10ED20000F9491F28091060290910702A09108023F
:10ED3000B091090280509F4FAF4FBF4F80930602A2
:10ED400090930702A0930802B0930902FFCD80ECD4
:10ED500092EE62E00F94F5F183E792EE60E00F949B
:10ED6000F5F18FE792EE60E00F94F5F18BE892EE0B
:10ED700060E00F94F5F189E992EE60E00F94F5F10F
:10ED800085EA92EE60E00F94F5F183EB92EE60E09D
:10ED90000F94F5F180EC92EE60E00F94F5F187ECC2
:10EDA00092EE60E00F94F5F188ED92EE60E00F9442
:10EDB000F5F18FED92EE60E00F94F5F18AEE92EEB0
:10EDC00060E00F94F5F183E093EEBDCD87EC92EE19
:10EDD00062E00F94F5F181E40F947BF282E40F94EA
:10EDE0007BF283E40F947BF284E40F947BF285E45E
:10EDF0000F947BF286E40F947BF287E40F947BF20E
:10EE000088E40F947BF28AE40F947BF28BE40F94F6
:10EE10007BF28CE40F947BF299CD88ED92EE62E068
:10EE20000F94F5F1772473948824992409C48FED05
:10EE300092EE62E00F94F5F140910A0250910B02BC
:10EE400060910C0270910D0282E020E10F9491F22A
:10EE500080910A0290910B02A0910C02B0910D02D8
:10EE600080509F4FAF4FBF4F80930A0290930B0289
:10EE7000A0930C02B0930D0269CD8AEE92EE62E08F
:10EE80000F94F5F184EE90EE60E00F94F5F18FECC5
:10EE900091EE60E00F94F5F1662477244301CC5D98
:10EEA000DE4F19821882C452D140D401C301B695F5
:10EEB000A79597958795CA5DDE4F88839983AA8326
:10EEC000BB83C652D140CC5DDE4FA881B981C4520C
:10EED000D1401196CC5DDE4FB983A883C452D14096
:10EEE000CD0162E070E00F9434F2B0E2B093C6005E
:10EEF0008091C00086FFFCCF8091C0008064809329
:10EF0000C000EDE2E093C6008091C00086FFFCCF18
:10EF10008091C00080648093C000F0E2F093C6004E
:10EF20008091C00086FFFCCF8091C00080648093F8
:10EF3000C000CA5DDE4FE880F9800A811B81C6529D
:10EF4000D140BB27A12F902F8F2D0F940DF2CA5DBA
:10EF5000DE4F8881C652D1400F940DF2B0E2FB2EF5
:10EF6000F092C6008091C00086FFFCCF8091C00067
:10EF700080648093C0000DE30093C6008091C000C0
:10EF800086FFFCCF8091C00080648093C00010E2B7
:10EF90001093C6008091C00086FFFCCF8091C00016
:10EFA00080648093C0008BBEF3012791C65DDE4F65
:10EFB0002883CA52D140A22EBB24CC24DD2408943D
:10EFC000611C711C811C911C8BBEF3018791282E42
:10EFD0003324442455240894611C711C811C911C09
:10EFE0008BBEF3013791C55DDE4F3883CB52D140E4
:10EFF0000894611C711C811C911C8BBEF30147910C
:10F00000C45DDE4F4883CC52D140ADEFEA2EAFEF66
:10F01000FA2EAFEF0A2FAFEF1A2F6E0C7F1C801E57
:10F02000911E142D032DF22CEE24EA0CFB1C0C1D5A
:10F030001D1D0F940DF220E22093C6008091C000A8
:10F0400086FFFCCF8091C00080648093C000C65DC5
:10F05000DE4F8881CA52D1400F940DF230E23093D6
:10F06000C6008091C00086FFFCCF8091C000806404
:10F070008093C000C45DDE4F8881CC52D1400F9494
:10F080000DF240E24093C6008091C00086FFFCCFA5
:10F090008091C00080648093C000C55DDE4F888190
:10F0A000CB52D1400F940DF250E25093C6008091A4
:10F0B000C00086FFFCCF8091C00080648093C000B8
:10F0C0008FEFE8168FEFF80680E0080780E018075A
:10F0D00031F484E092EE60E00F94C2F1DFC0D80119
:10F0E000C7018070907CA070B0708050904CA040A0
:10F0F000B040D1F52FEF3FE340E050E0E222F322B1
:10F1000004231523CA5DDE4FA880B980CA80DB8046
:10F11000C652D140AE0CBF1CC01ED11EAA0CBB1CD7
:10F12000CC1CDD1C8EE092EE60E00F94C2F1BB2798
:10F13000A12F902F8F2D0F940DF28E2D0F940DF285
:10F1400030E23093C6008091C00086FFFCCF8091F2
:10F15000C00080648093C0004EE34093C60080915D
:10F16000C00086FFFCCF87C08EE09EEFA0E0B0E03D
:10F17000E822F9220A231B239CE0E91694E9F90608
:10F1800090E0090790E0190709F088C0C45DDE4FE0
:10F19000A881CC52D140EA2EFF2400E010E0102FCD
:10F1A0000F2DFE2CEE24C55DDE4FB881CB52D14031
:10F1B000EB0EF11C011D111DD601C501817090706F
:10F1C000A070B070DC0199278827E80EF91E0A1F8D
:10F1D0001B1F20EF30E040E050E0A222B322C42207
:10F1E000D52241E1AA0CBB1CCC1CDD1C4A95D1F7F1
:10F1F000EA0CFB1C0C1D1D1D81E090E0A0E0B0E0BE
:10F20000282239224A225B2235E1220C331C441C7D
:10F21000551C3A95D1F7E20CF31C041D151D57013E
:10F220006801AA0CBB1CCC1CDD1C85E192EE60E0E1
:10F230000F94C2F1C801AA27BB270F940DF2BB2778
:10F24000A12F902F8F2D0F940DF28E2D0F940DF274
:10F2500090E29093C6008091C00086FFFCCF809121
:10F26000C00080648093C000AEE3A093C60080918C
:10F27000C00086FFFCCF8091C00080648093C000F6
:10F28000C601AA27BB270F940DF2BB27AD2D9C2DDD
:10F290008B2D0F940DF28A2D0F940DF20F94DCF14B
:10F2A000CC5DDE4FE881F981C452D140F99709F471
:10F2B0004DCBF4E0EF2EF12C012D112D6E0C7F1CA7
:10F2C000801E911EF2CD83E093EE62E00F94F5F183
:10F2D0008AE192EE60E00F94C2F18091C00087FF56
:10F2E000FCCF1091C6001F751093C6008091C0001E
:10F2F00086FFFCCF8091C00080648093C0000F9493
:10F30000DCF1812F81548A3108F036C1163409F4BA
:10F3100095C0173490F4133409F44EC0143430F40B
:10F320001134F1F0123409F01DC130C0143409F465
:10F3300059C0153409F016C16BC01A3409F4C4C0A1
:10F340001B3438F4173409F48FC0183409F00AC19B
:10F35000A1C01B3409F4D2C01C3409F003C1E8C0B9
:10F360008FEF81B90DC082B1809582B980E090E0C5
:10F37000E0EDF7E03197F1F70196883C9105C1F790
:10F380008091C00087FFEFCF12B8EFC08FEF84B934
:10F390000DC085B1809585B980E090E0E0EDF7E0A3
:10F3A0003197F1F70196883C9105C1F78091C00033
:10F3B00087FFEFCF15B8D9C08FEF87B90DC088B1DF
:10F3C000809588B980E090E0E0EDF7E03197F1F7C3
:10F3D0000196883C9105C1F78091C00087FFEFCF6F
:10F3E00018B8C3C08FEF8AB90DC08BB180958BB9A7
:10F3F00080E090E0E0EDF7E03197F1F70196883C8E
:10F400009105C1F78091C00087FFEFCF1BB8ADC059
:10F410008FEF8DB90DC08EB180958EB980E090E0F0
:10F42000E0EDF7E03197F1F70196883C9105C1F7DF
:10F430008091C00087FFEFCF1EB897C08FEF80BBD1
:10F440000DC081B3809581BB80E090E0E0EDF7E0F6
:10F450003197F1F70196883C9105C1F78091C00082
:10F4600087FFEFCF11BA81C08FEF83BB0DC084B38C
:10F47000809584BB80E090E0E0EDF7E03197F1F714
:10F480000196883C9105C1F78091C00087FFEFCFBE
:10F4900014BA6BC08FEF809301010FC080910201FD
:10F4A00080958093020180E090E0E0EDF7E03197F5
:10F4B000F1F70196883C9105C1F78091C00087FF64
:10F4C000EDCF1092020151C08FEF809304010FC065
:10F4D0008091050180958093050180E090E0E0ED4A
:10F4E000F7E03197F1F70196883C9105C1F78091DB
:10F4F000C00087FFEDCF1092050137C08FEF8093DA
:10F5000007010FC08091080180958093080180E079
:10F5100090E0E0EDF7E03197F1F70196883C910536
:10F52000C1F78091C00087FFEDCF109208011DC088
:10F530008FEF80930A010FC080910B01809580931B
:10F540000B0180E090E0E0EDF7E03197F1F70196F4
:10F55000883C9105C1F78091C00087FFEDCF1092E4
:10F560000B0103C085E292EEEEC98091C00087FFD7
:10F57000FCCF8091C600EAC988E392EEE4C98CE131
:10F5800091EEE1C988249924933011F1943028F444
:10F59000913089F09230B8F408C0953061F195301F
:10F5A000F0F0963009F048C043C02B3109F042C951
:10F5B00091E06BE13FC96227C15DDE4F2883CF52E6
:10F5C000D14092E037C9B22FA0E0622793E032C960
:10F5D000822F90E0A82BB92B622794E02BC92E3004
:10F5E00009F039C3622795E0C05DDE4F19821882A9
:10F5F000C053D1401FC9E1E0F0E0EC0FFD1FC05D3A
:10F60000DE4F08811981C053D140E00FF11F2083E4
:10F610000F5F1F4FC05DDE4F19830883C053D14079
:10F6200062270A171B0709F005C9D80196E002C92D
:10F63000261709F010C303C0973009F0FBC87724E0
:10F640009981933109F412C19431C8F4963009F4C8
:10F65000D8C0973050F4923009F406C1933009F4C1
:10F660006DC0913009F059C253C0913109F477C08F
:10F67000923108F0BBC0903109F04FC2F5C098310B
:10F6800009F487C0993150F4953109F4EFC09531F0
:10F6900008F4C6C1963109F040C2C2C19A3109F4DA
:10F6A0006CC09A3108F491C09B3109F45BC09D3164
:10F6B00009F033C29D81903359F48F81882311F46E
:10F6C0009EE11CC0813011F091E018C098E916C08D
:10F6D000892F807591F0903539F4E0E0F0E089E011
:10F6E0008093570094910AC0983539F4E3E0F0E034
:10F6F00089E080935700949101C090E01A821B82A8
:10F700008D818C831D829E831F8227E030E009C299
:10F710001A8288E08B8381E48C8386E58D8382E581
:10F720008E8389E48F8383E5888780E589878FE5E9
:10F730008A8782E38B872BE030E0F3C18A818139AD
:10F7400041F0823941F0803911F48FE005C080E04A
:10F7500003C082E001C08AE01A828B8344C0772410
:10F76000739482C08D81882311F48EE12CC0813086
:10F7700011F081E028C088E926C01A82E1E0F0E0BB
:10F7800089E08093570084918B831C8224E030E0D1
:10F79000C8C18B81803589F48C81883039F4E2E0EE
:10F7A000F0E089E08093570084910DC0E0E0F0E044
:10F7B00089E080935700849106C0E3E0F0E089E09F
:10F7C0008093570084911A82DFCF8D81836C99E0FA
:10F7D000E1E0F0E0082E90935700E89507B600FCB2
:10F7E000FDCF1A821B8223E030E09BC180EC8A832C
:10F7F000CE5CDE4F188219821A821B82C253D1401E
:10F800008EC18A8190E0A0E0B0E0582F44273327D2
:10F8100022278B8190E0A0E0B0E0DC0199278827C7
:10F82000282B392B4A2B5B2B8D8190E0A0E0B0E098
:10F83000282B392B4A2B5B2B8C8190E0A0E0B0E089
:10F84000BA2FA92F982F8827282B392B4A2B5B2BCF
:10F85000220F331F441F551FC05EDE4F288339839C
:10F860004A835B83C052D1401A8259C13A81C95C34
:10F87000DE4F3883C753D140CA5CDE4F1882C6536F
:10F88000D1408B81C82EDD24CA5CDE4F488159816E
:10F89000C653D140C42AD52A933109F082C0CE5C28
:10F8A000DE4F88819981AA81BB81C253D1408050AB
:10F8B000904CA340B04030F583E0CE5CDE4FE88052
:10F8C000F9800A811B81C253D140F70100935B008C
:10F8D00080935700E89507B600FCFDCFCE5CDE4F65
:10F8E000088119812A813B81C253D14000501F4FAA
:10F8F0002F4F3F4FCE5CDE4F088319832A833B8313
:10F90000C253D140C05EDE4F488159816A817B81FC
:10F91000C052D140DE011B9631E08C9111962C91A2
:10F9200011971296C75CDE4F2883C953D140C85C3B
:10F93000DE4F1882C853D14090E0C85CDE4FE881AA
:10F94000F981C853D1408E2B9F2B0C01FA01609393
:10F950005B0030935700E89511244E5F5F4F6F4F67
:10F960007F4F0EEFE02E0FEFF02ECE0CDF1CC114F8
:10F97000D10499F685E0C05EDE4F088119812A81A5
:10F980003B81C052D140F80120935B008093570027
:10F99000E89507B600FCFDCF81E180935700E8951C
:10F9A00035C0C05EDE4F88819981AA81BB81C0527B
:10F9B000D140B695A795979587957C018601ABE0D8
:10F9C000AA2EB12CAC0EBD1E0BC0D5016D915D01F0
:10F9D000C7010F947FFE0894E11CF11C01501040F8
:10F9E0000115110591F7A60160E070E0440F551F65
:10F9F000661F771FC05EDE4FE880F9800A811B8199
:10FA0000C052D1404E0D5F1D601F711F1A82C05E33
:10FA1000DE4F488359836A837B83C052D1407FC0C5
:10FA2000FA80C55CDE4FF882CB53D140C65CDE4F16
:10FA30001882CA53D1408B81C82EDD24C65CDE4FAC
:10FA400008811981CA53D140C02AD12A1A828981DA
:10FA5000BE016D5F7F4F843121F59601C05EDE4FA0
:10FA6000E880F9800A811B81C052D1400BBFF701A9
:10FA700087919691DB018C9311969C936E5F7F4FDB
:10FA8000D801C7010296A11DB11DC05EDE4F88835B
:10FA90009983AA83BB83C052D14022503040F1F6F3
:10FAA00036C0C05EDE4F288139814A815B81C052F9
:10FAB000D1400894C108D108760100E010E0089414
:10FAC000C11CD11C0894E11CF11C011D111DE20E8A
:10FAD000F31E041F151F21BDBB27A52F942F832FB5
:10FAE00082BD2F5F3F4F4F4F5F4FF89A80B5DB01CC
:10FAF0008D93BD012E153F054007510761F7C05E8C
:10FB0000DE4F288339834A835B83C052D1409601FC
:10FB10002D5F3F4FFB01108204C080EC8A8322E0FE
:10FB200030E08BE18093C6008091C00086FFFCCF5F
:10FB30008091C00080648093C000C15DDE4FF88179
:10FB4000CF52D140F093C6008091C00086FFFCCF19
:10FB50008091C00080648093C000432F3093C60022
:10FB60008091C00086FFFCCF8091C00080648093AC
:10FB7000C000922F2093C6008091C00086FFFCCF6A
:10FB80008091C00080648093C0008EE08093C600A6
:10FB90008091C00086FFFCCF8091C000806480937C
:10FBA000C00065E1C15DDE4FE880CF52D1406E25D7
:10FBB00069276427FE01319610C090819093C6009A
:10FBC0008091C00086FFFCCF31968091C000806498
:10FBD0008093C0006927215030402115310569F715
:10FBE0006093C6008091C00086FFFCCF8091C0006A
:10FBF00080648093C00085B1805885B9772081F4F6
:10FC0000C15DDE4F0881CF52D1400F5FC15DDE4F35
:10FC10000883CF52D14090E0A0E0B0E00D941AF4F8
:10FC200027982F9880E090E020ED37E0F901319798
:10FC3000F1F7019684369105C9F700008091C00064
:10FC40008D7F8093C00081E180935700E895EE2777
:10FC5000FF270994FFCF90E00D941AF497FB092E2B
:10FC600007260AD077FD04D02ED006D000201AF443
:10FC7000709561957F4F0895F6F7909581959F4F08
:10FC80000895A1E21A2EAA1BBB1BFD010DC0AA1FDD
:10FC9000BB1FEE1FFF1FA217B307E407F50720F0F5
:10FCA000A21BB30BE40BF50B661F771F881F991F70
:10FCB0001A9469F760957095809590959B01AC01B9
:10FCC000BD01CF010895AA1BBB1B51E107C0AA1FAC
:10FCD000BB1FA617B70710F0A61BB70B881F991FED
:10FCE0005A95A9F780959095BC01CD010895F99991
:10FCF000FECF92BD81BDF89A992780B50895262F31
:10FD0000F999FECF1FBA92BD81BD20BD0FB6F89400
:0EFD1000FA9AF99A0FBE01960895F894FFCF63
:040000033000E000E9
:00000001FF
